S01800006275696C642F6D6963617A2F6D61696E2E73726563E5
S11300000C9449000C943E050C9448050C9452053C
S11300100C945C050C9466050C9470050C94100704
S11300200C947A050C9468000C9468000C94560B9C
S11300300C94E0160C9408050C941E050C9484058D
S11300400C94F7040C949A0E0C9468000C946800B9
S11300500C9468000C9468000C9468000C9468007C
S11300600C9413050C9468000C9468000C946800BC
S11300700C9468000C9468000C9468000C9468005C
S11300800C9468000C9468000C94680000081C1818
S1130090141011241FBECFEFD0E1DEBFCDBF11E09D
S11300A0A0E0B1E0EAE1F3E300E00BBF02C0079097
S11300B00D92AE30B107D9F715E0AEE0B1E001C062
S11300C01D92A133B107E1F70E941B150C948C1902
S11300D00C9400008FB7F894992708958FBF089562
S11300E0282F9FB7F894E82FFF27E95AFE4F808105
S11300F08F3F81F4E0912F05E21771F40BC0209338
S1130100210504C0FF27E95AFE4F208320932F05C1
S113011020E007C025E005C0809121058F3F91F7BD
S1130120EECF892F99278FBF822F992708957FB704
S1130130F89462B720912301309124014091250164
S11301405091260106B601FE0FC081B792B7280F61
S1130150311D411D511D2F5F3F4F4F4F5F4F290FE1
S1130160311D411D511D04C0260F311D411D511D5E
S1130170872F99278FBFCA01B90108952F923F9203
S11301804F925F926F927F928F929F92AF92BF92A3
S1130190CF92DF92EF92FF920F931F93CF93DF934F
S11301A0CDB7DEB729970FB6F894DEBF0FBECDBF2B
S11301B06FB76983F894209077013090780140906C
S11301C0790150907A016624772488242EE4A22EA3
S11301D093E8B92ECC24DD24EE24FF2400E010E0C3
S11301E0222D332D442D552D662D772D882D90E00D
S11301F00E946E172A833B834C835D836E837F83C7
S113020088879987822E932EA42EB52E240135013A
S113021000E20E946C18A22EB32EC42ED52EA30188
S1130220920156954795379527952A0D3B1D4C1DF0
S11302305D1D57FF05C05F772F5F3F4F4F4F5F4FE7
S113024020937701309378014093790150937A0198
S1130250E9818E2F99278FBFCA01B90129960FB65C
S1130260F894DEBF0FBECDBFDF91CF911F910F91E8
S1130270FF90EF90DF90CF90BF90AF909F908F90C2
S11302807F906F905F904F903F902F900895FC0166
S113029082819927582F442781819927482B592BEC
S11302A0CA01892F9927869586958370907082302C
S11302B0910559F08330910559F0892B19F420E008
S11302C030E008C02CE93FEF05C022E030E002C076
S11302D028E030E0CA0184E0989F812D99271124F9
S11302E08230910559F08330910559F0892B19F426
S11302F080E090E008C08CE99FEF05C082E090E0C8
S113030002C088E090E0280F391F2A5F3F4FCF01D9
S1130310820F931F0895282F9FB7F894662349F0FE
S1130320E82FFF27E552FE4F8081882311F021E05A
S113033006C0E22FFF27E552FE4F608320E0892F9D
S113034099278FBF822F99270895E82F8FB7F894A4
S1130350282F332790E0FF27E552FE4F8081861730
S113036009F491E02FBF892F99270895882311F06C
S11303706E9A08956E980895882311F06F9A0895DF
S11303806F98089580E00E94B601BA9ABB98B99A12
S1130390B89A6C9A80E00E94BC016B986A9881E0DC
S11303A00E94B601709A8DB18C7F8DB908950F9318
S11303B01F93CF93DF93182F8FB7F894C82FDD279F
S11303C00C2F61E080E00E948B01882321F0CFBFD5
S11303D085E090E024C0809105018823A1F48091F8
S11303E01301823081F409C082E0809313011092DA
S11303F005010E94C201B89AC0981093020180E0DE
S11304000FBF99270CC080911301882369F38FB71C
S1130410F89499271092DB018FBF81E0F1CFDF912F
S1130420CF911F910F9108951F93182F81E00E947F
S1130430B6011FB9779BFECF8FB199271F910895FD
S11304408F929F92AF92BF92CF92DF92EF92FF92E0
S11304500F931F93CF93DF938FB7F8949927C0908E
S11304602A05D0902B058090AC019090AD01C091ED
S11304709401D09195012091200130912101EAE06D
S1130480AE2EB12CAC0EBD1E2A153B0508F4590145
S11304908FBF7401EC0EFD1E86010C0F1D1F14C0CE
S11304A0C114D10419F0F801808101C080E00E94D8
S11304B014028114910411F0F701808321960894A9
S11304C0E11CF11C0F5F1F4FC5010197C817D90725
S11304D038F381E00E94BC019FB7F894C114D104A1
S11304E031F0CC0EDD1EF60180818FB901C01FB83A
S11304F0D0939501C0939401892F99278FBF80E0F1
S113050090E0DF91CF911F910F91FF90EF90DF90DA
S1130510CF90BF90AF909F908F9008952FB7F8948D
S11305203327509321014093200190932B0580930E
S11305302A057093AD016093AC011092950110925D
S113054094012FBF452B29F08FB10E9420029927D7
S1130550089587E00E94700080E090E008958FB7CE
S1130560F89499271092DD018FBF0895AF92BF923E
S1130570CF92DF92EF92FF920F931F935B016C0176
S11305806091A20161FF20C020919A0130919B01EA
S113059040919C0150919D01E0909E01F0909F013B
S11305A00091A0011091A101D601C501821B930BFA
S11305B0A40BB50B8E159F05A007B10728F0EAE937
S11305C0F1E0A0E0B0E021C0E3EAF1E06091AB012A
S11305D061FF2EC02091A3013091A4014091A50197
S11305E05091A601E090A701F090A8010091A90103
S11305F01091AA01A21AB30AC40AD50AAE14BF0400
S1130600C006D106A8F0A1E0B0E060FF04C0808578
S11306108D7F808708C02E0D3F1D401F511F2083F2
S1130620318342835383A13019F48DE00E9470001A
S11306308BE00E9470001F910F91FF90EF90DF906C
S1130640CF90BF90AF900895DF92EF92FF920F93F7
S11306501F938FB7F894282F3327D22E91B782B7E0
S113066046B7981711F041FF02C02FBF6AC08091AE
S113067093018823E1F10E949700E090D701F09064
S1130680D8010091D9011091DA01209135013091FE
S1130690360140913701509138016E197F09800B62
S11306A0910B621773078407950720F0109293014A
S11306B071E01EC02E0D3F1D401F511F809123016C
S11306C090912401A0912501B0912601281B390B9A
S11306D04A0B5B0B273E31054105510540F4822F3F
S11306E0223010F070E005C070E082E002C070E0DB
S11306F086EE682F615000B601FCFDCF82B7681703
S113070009F46F5F20912301309124014091250168
S113071050912601DA01C9010196A11DB11D860F70
S1130720911DA11DB11D82179307A407B50710F4ED
S1130730622F609561BFDFBE772319F08AE00E94C3
S113074070001F910F91FF90EF90DF900895AFB765
S1130750F894BB27E1E0E09393016093D701709391
S1130760D8018093D9019093DA0120933501309315
S113077036014093370150933801AFBF0E942403E0
S1130780089580E880933901109271011092240534
S11307901092200510926D010895CF93DF93FC0110
S11307A015A6DC019E96ED011B821A82198280E84F
S11307B086A7DF91CF9108958FB7F894609198013F
S11307C0709199012CB53DB506B602FE04C06F5F69
S11307D07F4F2CB53DB599278FBF88279927CB012B
S11307E07727662744275527622B732B842B952B59
S11307F00895EF92FF920F931F930E94DC037B01F5
S11308008C012091820130918301409184015091A7
S1130810850180917D0190917E01A0917F01B0912D
S11308208001820F931FA41FB51FE216F30604076D
S1130830150730F082179307A407B50758F005C0D1
S113084082179307A407B507E0F5E816F9060A0727
S11308501B07B8F59C01AD012E193F09400B510B44
S1130860213060E8360760E0460760E0560768F12B
S113087080E090E8A0E0B0E0E80EF91E0A1F1B1F1C
S1130880E0928201F0928301009384011093850128
S113089080E090E8AFEFBFEFE80EF91E0A1F1B1FC0
S11308A0205030484040504020937D0130937E01D9
S11308B040937F015093800120E030E840E050E015
S11308C014C020E030E040E050E080938201909337
S11308D08301A0938401B093850110927D0110924D
S11308E07E0110927F0110928001A901B7012CB5FD
S11308F03DB5C9018E199F0903968417950720F009
S1130900B9016D5F7F4F02C0640F751F61157105DA
S113091011F461E070E0615070407BBD6ABD80E11C
S113092086BF87B7806187BF1F910F91FF90EF90BB
S113093008950F931F930FB7F894112760938201C2
S113094070938301809384019093850120937D01AA
S113095030937E0140937F01509380010E94F903FC
S11309600FBF1F910F91089597B79F7D97BF90E296
S113097096BF882319F08EB5806402C08EB58F7B34
S11309808EBD87B7806287BF80E090E00895AF9204
S1130990BF92CF92DF92EF92FF920F931F93CF9368
S11309A0DF93CDB7DEB728970FB6F894DEBF0FBE3E
S11309B0CDBF20E070E0E0910001F091010132E14F
S11309C04DE65CE46FE4809101019E2F28960FB6FA
S11309D0F894DEBF0FBECDBFDF91CF911F910F9171
S11309E0FF90EF90DF90CF90BF90AF9008951F924B
S11309F00F920FB60F9211248F9383B783BF00B663
S1130A0000FCFDCF8F910F900FBE0F901F90189593
S1130A1078941F920F920FB60F9211240F900FBE6D
S1130A200F901F90189578941F920F920FB60F9203
S1130A3011240F900FBE0F901F90189578941F9259
S1130A400F920FB60F9211242F933F938F939F937E
S1130A502FB7F894332780919801909199010196CA
S1130A6090939901809398012FBF9F918F913F910B
S1130A702F910F900FBE0F901F9018951F920F92F9
S1130A800FB60F9211240F900FBE0F901F90189560
S1130A901F920F920FB60F9211240F900FBE0F905A
S1130AA01F9018951F920F920FB60F9211240F905A
S1130AB00FBE0F901F9018951F920F920FB60F92B2
S1130AC011240F900FBE0F901F9018951F920F9234
S1130AD00FB60F9211240F900FBE0F901F90189510
S1130AE01F920F920FB60F9211240F900FBE0F900A
S1130AF01F9018951F920F920FB60F9211240F900A
S1130B000FBE0F901F9018951F920F920FB60F9261
S1130B1011242F933F934F935F936F937F938F93FE
S1130B209F93AF93BF93EF93FF9383B783BF00B6B5
S1130B3000FCFDCF81B799270196AA27BB272091F6
S1130B402301309124014091250150912601280F61
S1130B50391F4A1F5B1F20932301309324014093C4
S1130B6025015093260178940E942403FF91EF916C
S1130B70BF91AF919F918F917F916F915F914F91B1
S1130B803F912F910F900FBE0F901F9018950F93C8
S1130B901F93182F0FB7F89461E080E00E948B0137
S1130BA0882371F510930201809105018823A9F52A
S1130BB080911301823089F586E00CC00E94C20145
S1130BC080911301882349F481E0809313011092EA
S1130BD06E0188E00E9470002AC0809181018F3FDD
S1130BE031F5E0910401EE2311F11CC010920301D0
S1130BF004C0FF27EF57FE4F10821092040117C064
S1130C0081E090E002C0880F991F1A95E2F72091C5
S1130C101201282B209312010AC08091130188230A
S1130C20E1F6CCCF809103018F3F19F7DFCF802FFE
S1130C3099278FBF80E090E01F910F9108951F9333
S1130C4083E00E94D7019927182F882319F083E0A5
S1130C500E94C705812F99271F91089561E081E0C3
S1130C600E948B018823E9F48FB7F894282F332747
S1130C7080910F0190911001892B11F02FBF20C09A
S1130C8081E090E09093100180930F012FBFDD9AD3
S1130C900E94DC0324E130E040E050E00E9499042B
S1130CA00FC062E081E00E94A501882319F089E069
S1130CB090E0089561E081E00E94A501882319F085
S1130CC080E090E0089585E090E00895EF92FF922F
S1130CD00F931F938091AB0181FD27C00E94BE003A
S1130CE07B018C010E9497006093A3017093A4017F
S1130CF08093A5019093A601C70168EC70E00E945F
S1130D00FB188C509E4FAA27BB278093A701909372
S1130D10A801A093A901B093AA018091AB018360BB
S1130D208093AB018BE00E9470001F910F91FF90A4
S1130D30EF9008951F93CF93DF93182F8FB7F894F4
S1130D40C82FDD2760E080E00E94A501882321F000
S1130D50CFBF80E090E005C0CFBF812F0E94140276
S1130D609927DF91CF911F910895EF92FF920F93EE
S1130D701F93CF93DF93182F7B01042F8FB7F89421
S1130D80C82FDD2760E080E00E94A501882321F0C0
S1130D90CFBF80E090E014C0CFBF1064812F9927AB
S1130DA090938B0180938A010E941402182F402F84
S1130DB05527B70180E090E00E948E02812F992789
S1130DC0DF91CF911F910F91FF90EF900895C098FC
S1130DD060911E0170911F0141E08FE30E94B506EE
S1130DE0089582E090E0909368018093670181E028
S1130DF08093710120E030E080910201843011F48D
S1130E0021E030E0232B29F484E00E94D7018823D9
S1130E1019F40E94E706089584E00E94C705089526
S1130E201F920F920FB60F9211242F933F934F935B
S1130E305F936F937F938F939F93AF93BF93EF933E
S1130E40FF938091670190916801019749F482E0D2
S1130E5090E090936801809367010E94F10605C0B9
S1130E6080916D018F5F80936D01FF91EF91BF9130
S1130E70AF919F918F917F916F915F914F913F912E
S1130E802F910F900FBE0F901F9018951F93809174
S1130E901201882309F04BC0109102011F3F09F091
S1130EA046C060E00E94A501882309F440C081E0A7
S1130EB080939E04809156018823E1F110929E0450
S1130EC085E090E045C0923069F5C09A80910301B5
S1130ED020E030E08F3F11F421E030E0232BE9F4EF
S1130EE0109305018F3F19F42FEF30E00DC0282F28
S1130EF03327F901EF57FE4F8081809303018F3F21
S1130F0011F410930401108320936E0181E0809307
S1130F10130188E00E94700005C01093050110922F
S1130F20130111C080911301882369F00FC081E07F
S1130F3090E00EC08091050190911301882319F26D
S1130F40923021F0EFCF80E00E94B60180E090E083
S1130F501F9108951F93182F81E090E0909315013D
S1130F6080931401109256010E9446078FB7F8949B
S1130F70992710930E018FBF82E00E9470001F9189
S1130F8008951F93CF93DF939FB7F894C92FDD275C
S1130F901C2F90910201981721F0CFBF81E090E0BF
S1130FA03AC08FEF80930201309112013323F1F4A0
S1130FB08FB7F89499271092DB018FBF0E944607E0
S1130FC0CFBF11C02093020181E090E002C0880FDE
S1130FD0991F4A95E2F7809538233093120186E0F1
S1130FE00E9470001FBF80E090E015C080E065E0C3
S1130FF0E32FFF270E94EF18292F492F5527CF01F0
S1131000042E02C0959587950A94E2F780FDDACF05
S1131010822F8F5FEFCFDF91CF911F9108951F93A0
S1131020CF93DF938FB7F894C82FDD271C2F8091BF
S1131030670190916801892B29F484E00E94C1071B
S1131040CFBF1EC01092710180916D01882311F0F1
S1131050B79904C00E9908C0882319F08150809371
S11310606D010E94F1060BC081E090E0909368014D
S11310708093670110926D0184E00E94C1071FBF35
S1131080DF91CF911F9108950E94C103C09AC09827
S113109088E00E949A0688E00E949A06C09A84E03A
S11310A00E94C1070E940F080895FF920F931F9397
S11310B0CF93DF93F82E8B018FB7F894C82FDD27D9
S11310C060E080E00E94A501882321F0CFBF80E08A
S11310D090E00CC0CFBF8F2D0E941402812F99275E
S11310E00E941402802F0E9414029927DF91CF914D
S11310F01F910F91FF9008951F931FB7F89480914B
S11311006C01882319F460E070E009C060E080910C
S11311102905882309F461E081E068277727809115
S11311207401882319F480E090E00AC090E0809173
S11311301402882309F491E081E09827892F9927E4
S1131140762F6627770F770F770FB4E0880F991FF4
S1131150BA95E1F7826E9262682B792B81E10E9445
S11311605508812F99278FBF1F9108958FB7F89441
S1131170992760911D028FBF85E0689FB0011124FB
S1131180625D7E4F706488E10E9455080895EF9275
S1131190FF921F93CF93DF93E0907501F090760157
S11311A0F70182A59927182F882309F41FE1C09815
S11311B080916B01811749F0612F77276F717070EF
S11311C0606E706885E10E94550810936B01F70109
S11311D010818FB7F894C82FDD2760E080E00E946B
S11311E0A501882311F0CFBF12C0CFBF8EE390E0DA
S11311F090938B0180938A018EE30E941402115014
S1131200412F552760E070E0C7010E948E02DF91F4
S1131210CF911F91FF90EF9008950F931F93CF9359
S1131220DF93EC010FB7F89411270E944701FC01EA
S11312308FE380830FBF109227051092260561E08B
S113124082E00E948B01882319F085E090E072C04F
S113125080919F048F5F80939F0481508B838FB70D
S1131260F894082F112762E081E00E94A5018823E9
S113127029F40FBF0E94AF0281E05BC08FB7F894DE
S1131280992724E02093DC018FBFD0939201C0936F
S113129091010FBFFE013196818129819927982FF1
S11312A088273327822B932B80729C7C8983892FF8
S11312B0992781832981982F882733272164822BBA
S11312C0932B8983892F992781831CA618A619A695
S11312D019AA18AA1FA680E88EA761E06093DF010F
S11312E040919101509192018FB7F894282F3327A0
S11312F080911401909115018830910511F00197A6
S113130011F02FBF15C082E090E0909315018093F7
S11313101401609330055093760140937501109247
S113132022012FBF0E941F06882311F40E94C708C0
S113133080E09927DF91CF911F910F910895CF936A
S1131340DF93DA01422F2D3118F082E090E05EC085
S1131350ED018B876E83872F99278F832FB7F8949E
S1131360332780917201909173012FBFFD01848313
S1131370892F992785832FB7F89433278091060105
S1131380909107012FBF8887892F992789873196E4
S1131390818129819927982F8827332720643868E9
S11313A0822B932B8983892F99278183435F4C93C5
S11313B04D5080910901882359F010920901642F3E
S11313C0CD010E940D099927282F8823A9F417C05D
S11313D0842F992790938F0180938E01B0931901E4
S11313E0A09318018CE00E94700080910901882369
S11313F049F489E090E00AC08FEF80930901822FBD
S1131400992704C010927B0180E090E0DF91CF9196
S113141008951F93CF93DF93182FEB01E82FFF2735
S1131420EE0FFF1FEA56FE4F1182108210920C013C
S1131430E0919601F0919701309721F08091250574
S113144080FF11C081E080930C0103C08FE00E94F3
S113145070001123D1F4C05ED140B9F410921A0186
S11314600E94660612C020812D503327678177279A
S1131470762F662786819927682B792BAF01838580
S11314800E949F09882329F3E1CFDF91CF911F9117
S113149008959B0180910C01882349F46091960181
S11314A0709197016217730711F40E94090A089555
S11314B0CF92DF92EF92FF920F931F93CF93DF931C
S11314C08C01F62E6A01E22E8FB7F894C82FDD271F
S11314D060E080E00E94A501882321F0CFBF80E076
S11314E090E01EC0CFBF0F0D111D802F80680E9499
S11314F01402F82E16950795802F807C0E94140202
S11315000E2D0AC0EE2DFF27E01BF109EC0DFD1D89
S113151080810E94140201500023A1F78F2D992786
S1131520DF91CF911F910F91FF90EF90DF90CF90BB
S11315300895CF93DF93CDB7DEB72C970FB6F89409
S1131540DEBF0FBECDBF8FB7F894282FAE014F5F1B
S11315505F4FDA01E5E1F2E088E001900D928150FD
S1131560E1F780917201909173018987892F9927FE
S11315708A8780918601909187018B87892F99278B
S11315808C872FBF2CE060E080E691E00E94580A2F
S11315902C960FB6F894DEBF0FBECDBFDF91CF916E
S11315A00895CF92DF92EF92FF920F931F93CFB6DD
S11315B0F894DD240E94BE00DC01CB0166E470E0F7
S11315C00E94FB187BE0E72EF12CE80EF91EF09246
S11315D02D05E0922C050E94DC0300271127A801A9
S11315E097010E949904CFBE1F910F91FF90EF9035
S11315F0DF90CF9008951F93CF93DF938FB7F89424
S1131600C82FDD271C2F8091140190911501089794
S1131610C9F489E00E949A0683E00E94C107C09A37
S113162081E090E090931501809314018FB7F894B2
S1131630992723E020930E018FBF82E00E9470005F
S1131640CFBF30C0C09880913005882311F085E069
S113165001C084E00E949A0683FD09C080E00E94D4
S11316609A0683FF04C085E090E020E003C083E095
S113167090E021E09093150180931401C09A1FBF5C
S1131680222341F01092220183E00E94C1070E94AC
S1131690D10A08C00E94DC0320E431E040E050E0BD
S11316A00E949904DF91CF911F91089578941F921D
S11316B00F920FB60F9211242F923F924F925F9286
S11316C06F927F928F929F92AF92BF92CF92DF924E
S11316D0EF92FF920F931F932F933F934F935F9338
S11316E06F937F938F939F93AF93BF93CF93DF9326
S11316F0EF93FF93C6B5D7B58FB7F894282E0E9401
S1131700DC039B012C1B3D0B442755272B013C017B
S1131710421A530A640A750A8091140190911501C2
S11317208530910521F0069709F0E0C0BFC086E03E
S113173090E0909315018093140131E0332E3092A0
S113174070011092160180E00E94B404E0917501CA
S1131750F091760141AABB27A72D962D852D80AB4C
S1131760C301AA27BB2787A7872D9927AA27BB27A9
S113177086A7E0917501F091760185A5882309F487
S113178084C06081655077274F01860E971EF4014F
S11317902081E1808281A3809927AA27BB27BA2FC1
S11317A0A92F982F8827332744275527522F4427BA
S11317B033272227FF24002711278701FF24EE2443
S11317C02E293F29402B512BBB24CC24DD242A294C
S11317D03B294C295D29822B932BA42BB52B8419EF
S11317E09509A609B7098383292F3A2F4B2F55272B
S11317F022839D014427552721838B2F9927AA27CC
S1131800BB278083C09824E0A40180E090E00E947C
S1131810580AC09AF4012081E1808281A38099272B
S1131820AA27BB27BA2FA92F982F88273327442705
S11318305527522F442733272227FF240027112717
S11318408701FF24EE242E293F29402B512BBB2452
S1131850CC24DD242A293B294C295D29822B932B76
S1131860A42BB52B840D951DA61DB71D8383292F8D
S11318703A2F4B2F552722839D0144275527218337
S11318808B2F9927AA27BB278083E0917501F091BC
S11318907601818185FF02C03092560183E00E9467
S11318A0C10787B78F7E87BF84997AC01092700171
S11318B081E00E94B404E0917501F0917601818188
S11318C085FF0FC087E090E0909315018093140189
S11318D00E94DC0320E031E040E050E00E949904E3
S11318E003C080E00E94AA07849B5AC0809116011D
S11318F0882391F580917001882371F511E010938C
S113190070010E94B40480B320912005283098F41B
S1131910E0912405E20FFF27E770F070EE0FFF1F40
S1131920EE0FFF1FE453FB4F4082518262827382A9
S11319302F5F2093200510931601D0938D01C0933F
S11319408C0184992DC09927E4E096958795EA95B2
S1131950E1F7182F117001C010E0809170018130FF
S1131960F9F4109270010E94B4041092160111232C
S1131970B9F480918C0190918D01C81BD90B2A97E1
S113198078F480912005882319F0815080932005F4
S11319908091750190917601009711F00E94CD031A
S11319A02FBEFF91EF91DF91CF91BF91AF919F91A6
S11319B08F917F916F915F914F913F912F911F91E3
S11319C00F91FF90EF90DF90CF90BF90AF909F90DA
S11319D08F907F906F905F904F903F902F900F90DB
S11319E00FBE0F901F901895EF92FF920F931F93C5
S11319F0CF93DF938B0180918A0190918B0186FFB5
S1131A0040C18F7B8F3309F08EC1C0911E01D091EC
S1131A101F01588150936901809167019091680179
S1131A208530910509F443C08630910509F48AC0D4
S1131A30029709F01FC185E090E0909368018093BC
S1131A40670140913901852F99270196242F332767
S1131A50281739074CF1B79906C00E9904C0451BE5
S1131A60415040933901409169014A32E8F44423DA
S1131A70A1F0BE016F5F7F4F483018F047E050E09F
S1131A8007C086E090E09093680180936701552732
S1131A9080E090E00E948E0246C110927101C09ACB
S1131AA084E00E94C107E3C00E9444083CC186E070
S1131AB090E090936801809367018091740188237A
S1131AC009F439C0809114028823A9F5898185FF1E
S1131AD032C08F814E812FB7F894332760918601ED
S1131AE0709187012FBF9927982F88275527842B1A
S1131AF0952B8617970759F08F812E819927982F58
S1131B0088273327822B932B8F5F9F4FA1F48981E2
S1131B108770813081F4C09AC0988AE00E949A0646
S1131B20C09AC0984091690147502896BE018FE33E
S1131B300E94B506F8C04091690147505527289680
S1131B40BE01A6CFC09A80916D01882339F484E048
S1131B500E94C10780916D01882311F0B7990AC0D2
S1131B600E9B08C090912005992321F08091690172
S1131B708B3038F480911E0190911F010E94CD0397
S1131B803DC0913001F5E0912405FF27EE0FFF1FC2
S1131B90EE0FFF1FE453FB4F2081318142815381BB
S1131BA0E0911E01F0911F0121ABBB27A52F942FBB
S1131BB0832F80ABCA01AA27BB2787A7252F3327EA
S1131BC04427552726A7809124059927019668E084
S1131BD070E00E940F1980932405809120058150A4
S1131BE080932005882351F080911E0190911F015C
S1131BF00E94CD0310922405109220058091690162
S1131C00FE01E80FF11D808187FF31C0012B79F1BE
S1131C1069816770E0911E01F0911F01623019F52E
S1131C20A0917501B0917601109709F1809114018A
S1131C30909115010797D9F4ED019B818381981741
S1131C40B1F487B78F7E87BF908181E08CA7E90FBD
S1131C50F11D8291319688A780818F7789A780E0D2
S1131C600E94AA0704C0613011F489E02AC00E94CE
S1131C700F0859C010927101C09A84E00E94C107F4
S1131C8052C08E3309F04FC0C09A809114019091D4
S1131C9015010897C9F4C09889E00E949A06C09A71
S1131CA083E00E94C10781E090E090931501809346
S1131CB014018FB7F894992723E020930E018FBF66
S1131CC082E00E9470002FC080913005882349F47F
S1131CD084E090E090931501809314010E94FB0A24
S1131CE022C083E00E94C10783E090E09093150135
S1131CF0809314010E94BE00DC01CB0166E371E015
S1131D000E94FB184BE0E42EF12CE80EF91EF09231
S1131D103401E09233010E94DC0300271127A8015B
S1131D2097010E949904DF91CF911F910F91FF9029
S1131D30EF9008951F920F920FB60F9211242F93D4
S1131D403F934F935F936F937F938F939F93AF933F
S1131D50BF93EF93FF932FB1E091AC01F091AD01EC
S1131D60309739F08091940190919501E80FF91F13
S1131D70208380919401909195010196909395010F
S1131D808093940180E00E94BC0140912001509115
S1131D90210180919401909195018417950718F47D
S1131DA00E9420021CC06091AC017091AD01809131
S1131DB02A0590912B051092AD011092AC0110925E
S1131DC02B0510922A0510922101109220011092E5
S1131DD09501109294012FB120E00E94F40CFF9120
S1131DE0EF91BF91AF919F918F917F916F915F918F
S1131DF04F913F912F910F900FBE0F901F90189508
S1131E00AF92BF92CF92DF92EF92FF920F931F9304
S1131E10CF93DF93CDB7DEB7C056D0400FB6F8945A
S1131E20DEBF0FBECDBF873009F4EFC1883098F410
S1131E30833009F4D3C0843038F4813009F476C097
S1131E40823008F07AC027C0853009F4E8C08630B3
S1131E5008F01EC1DEC08B3009F451C48C3038F454
S1131E60893009F409C28A3008F016C4F1C18D30F2
S1131E7009F4F1C48D3008F4C5C48E3021F08F30DC
S1131E8009F0AAC598C580912505882309F4A4C53D
S1131E9040E011E06EC50FB7F894112781E00E946D
S1131EA0B40461E0E62EF12CF0921501E0921401E5
S1131EB0109216011092560110926B010FBF0FB7CA
S1131EC0F89411270E94C103F0926801E09267011F
S1131ED01092710189B78F7B89BF80E488BF8AB76C
S1131EE080628ABF8AB78F7E8ABF89B7806489BFC0
S1131EF00FBF8FB7F894082F112780910F0190918D
S1131F001001049719F483E00E949A060FBF0FB7DB
S1131F10F8941127C09A80E00E94C1070FBF8FB7C1
S1131F20F894992722E02093DC0105C08FB7F89438
S1131F3099271092DC018FBF4FC58FB7F89499276A
S1131F40F0900E018FBF63E081E00E94A501882319
S1131F5059F10FB7F894112710921501109214013A
S1131F6087B78F7E87BF87B78F7D87BF83E00E9447
S1131F70C107C09A0FBF0FB7F894112710926801D8
S1131F80109267010E94C103C09A89B78F7B89BFF1
S1131F900FBF1092100110920F01DE98DD98DE9AA7
S1131FA081E00E94700007C08FB7F894992722E05F
S1131FB02093DC018FBF00919101109192010E9446
S1131FC0AF028091260590912705892B09F004C55D
S1131FD08FEF809309014F2DB80134C48FB7F89463
S1131FE0282F3327122F80912E05882301F581E0B5
S1131FF080932E0580910F0190911001049721F494
S113200081E00E94C70503C084E00E9470001FBFE6
S1132010E3C48FB7F894992710922E058CCF8FB70D
S1132020F894282F332780911101882311F02FBFB2
S1132030D3C42FBF80B3992756E0969587955A95B8
S1132040E1F7182F11709091880180918901891707
S1132050D9F01917C9F484E090E0909310018093AB
S11320600F018FB7F894992721E0209311018FBFB6
S113207060E070E08DE10E9455080E94990AC09AC0
S1132080C09880E00E9470001093890185E06DC0C3
S11320908FB7F8949927109102018FBF123009F479
S11320A067C0133030F4112359F0113009F094C48F
S11320B048C0133009F476C0143009F08DC4A2C0AE
S11320C0C0988FB7F894082F112780910F01909131
S11320D010010297A1F583E090E0909310018093A2
S11320E00F0168E170E08DE10E94550881E0809362
S11320F088011092110180B3992746E0969587953F
S11321004A95E1F7817090708093890185E00E947F
S1132110700081E00E949A066FE772E08CE10E94F1
S113212055080E94B6080E947C0866E57AE287E1B9
S11321300E9455086FEF70E885E10E9455080FBFB3
S11321404BC4C09886E00E949A060E94B6080E947A
S11321507C080E94990AC09AC09883E00E949A065B
S1132160C09A81E00E94C10784E00E94700034C4D8
S1132170C0988FB7F894082F112760E080E00E9480
S1132180A501882311F00FBF0AC00FBF83E50E9489
S1132190140280E00E94140280E00E941402C09A9B
S11321A082E02DC08FB7F8949927209114018FBF36
S11321B0243039F0283041F0223001F50E94C7085C
S11321C00BC40E94FB0A08C4C09889E00E949A06C6
S11321D0C09A83E00E94C1078FB7F894992721E041
S11321E030E030931501209314018FBF8FB7F8941A
S11321F0992710930E018FBF82E0B7CF83E00E942E
S1132200C107EAC30E94E706E7C30FB7F894112792
S113221040912001509121016091AC017091AD0178
S113222080912A0590912B051092AD011092AC017A
S113223010922B0510922A05109221011092200170
S1132240109295011092940120E00E94F40C77CF33
S11322502FB7F894332780916E018093050182E0B3
S1132260809313012FBF80910501882309F0B4C323
S1132270B89AC09886E079CFA0911E01B0911F0151
S1132280DC909D012D0D311DF9018081881F882767
S1132290881FFD0183A7F90180818F77FD0181A744
S11322A021503040F9018081FD0180A7A0911E01D9
S11322B0B0911F01FD0132818FB7F89499272091C5
S11322C06C018FBF222309F490C0832F9927969520
S11322D0879596958795837090708230910541F526
S11322E0878146812FB7F8943327609186017091D6
S11322F087012FBF9927982F88275527842B952B43
S11323008617970719F481E090E06CC0FD0187817E
S1132310268140E050E09927982F88273327822B85
S1132320932B8F5F9F4F11F441E050E0CA015AC0D4
S1132330039709F0A8C19E012F5F3F4F45E152E08A
S113234088E0FA010190AF01F90101929F018150E7
S1132350C1F79E012F5D3F4FAE014F5F5F4F88E095
S1132360FA010190AF01F90101929F018150C1F777
S11323709E01275F3F4FAE014F5D5F4F88E0FA013A
S11323800190AF01F90101929F018150C1F79E01B3
S11323902F5E3F4FAE01475F5F4F88E0FA01019027
S11323A0AF01F90101929F018150C1F79E01275E9F
S11323B03F4FAE014F5E5F4F88E0FA010190AF01DD
S11323C0F90101929F018150C1F748E050E0BE013C
S11323D0675E7F4FCD0106960E947819892B09F01C
S11323E052C103C0882309F44EC1FCE0FD1508F076
S11323F04AC1E0901E01F0901F01F7012281822F53
S1132400992716E0969587951A95E1F7039719F49D
S113241068E070E002C062E070E0822F9927969530
S113242087959695879583709070039719F488E043
S113243090E002C082E090E026E030E0E20EF31E7D
S113244040E050E020E030E0F701E80FF91F8AEFA8
S11324509FEFE80EF91E05C08191480F511D2F5FB3
S11324603F4F26173707C4F3F70163818FEF80933B
S113247028058FB7F894782F20E030E0E7E2F1E008
S1132480808191818417950731F48281861709F43C
S1132490B8C0209328052F5F3F4F33962430310571
S11324A079F77FBF909128053FB7F8949F3F21F0BB
S11324B080911701891799F420911701822F992788
S11324C0FC01EE0FFF1FE80FF91FE95DFE4F51837A
S11324D0408362832F5F2370209317010CC0892FE0
S11324E09927FC01EE0FFF1FE80FF91FE95DFE4F6E
S11324F0518340836283832F99278FBF0FB7F8944A
S11325001127C7010E944701FC0190810FBFF70109
S113251083A5882309F4B3C09F3309F0B0C0878131
S113252046812FB7F8943327609106017091070113
S11325302FBF9927982F88275527842B952B8617EB
S1132540970761F0878126819927982F8827332759
S1132550822B932B8F5F9F4F09F091C0F7018385E6
S1132560863009F08CC0F9E2DF1609F088C0F70163
S11325708389833609F083C08489803309F07FC05E
S11325808589482F552780910001909101018093FE
S11325903D01892F992780933C0140933B01109280
S11325A03A011092400110923F0110923E011092A4
S11325B04101A2E4B1E0769684E101900D9281504C
S11325C0E1F7DE019996EAE3F1E08CE101900D92E6
S11325D08150E1F7DE01AB5BBF4FFE01B9968CE1A0
S11325E001900D928150E1F790919001992309F4A3
S11325F081E0882309F043C0992329F420E030E0E6
S113260018C07FBF3CC080917C01E82FFF27EE0FEC
S1132610FF1FE255FE4F20813181118210829150BB
S1132620909390018F5F80937C01843111F4109218
S11326307C01F901DE01AB5BBF4F8CE10D9001928F
S11326408150E1F7F901578F468F90911D01943124
S1132650A0F480911C01E82FFF27EE0FFF1FE05626
S1132660FB4F318320838F5F80931C01843111F4ED
S113267010921C019F5F90931D010E946606F092C8
S11326801F01E0921E018FB7F894992710927101EF
S11326908FBF0E940F08A0C180916A01882361F551
S11326A02091C8043091C9044091CA045091CB04CC
S11326B0EFB7F894FF276091D7017091D80180910A
S11326C0D9019091DA01E0903501F0903601009142
S11326D03701109138016E0D7F1D801F911FEFBFD0
S11326E02093C8043093C9044093CA045093CB0484
S11326F010926A010E94A7030E9497006EC00E9474
S113270097005B016C018FB7F8949927109293019D
S11327108FBF8091A20181FF25C080919A01909181
S11327209B01A0919C01B0919D01A6019501281BDC
S1132730390B4A0B5B0BE0909E01F0909F010091D6
S1132740A0011091A101E21AF30A040B150B3FEF4B
S1132750E3163FEFF3063FEF03073FE7130711F0DC
S113276061E009C0BFEFEB2EBFEFFB2EBFEF0B2FD5
S1132770BFE71B2F60E08091AB0181FF24C08091F3
S1132780A3019091A401A091A501B091A601A60175
S11327909501281B390B4A0B5B0BDA01C901209107
S11327A0A7013091A8014091A9015091AA01281BC9
S11327B0390B4A0B5B0B2E153F05400751071CF4E0
S11327C079018A0103C0662309F406C11E141F049B
S11327D0100611062CF0C601B5010E94B602FCC019
S11327E0E092C804F092C9040093CA041093CB0485
S11327F081E080936A01A8019701C601B5010E9496
S1132800A703EAC090917B0180910901981709F40C
S1132810E3C0909309019923D1F400911801109118
S1132820190160918E01C8010E940D09482F552796
S1132830442309F4D1C08FEF8093090160911801FA
S113284070911901F80183850E94490AC5C08FEF70
S113285080930901C1C090E080911D01882309F48F
S113286091E0992309F0B8C080911A01882309F0F6
S11328707CC0E0911B01FF27EE0FFF1FE056FB4FCA
S113288000811181F801268D378DACEEB1E08CE129
S113289001900D928150E1F740EE51E02093E60162
S11328A0632F77276093E70186E08093EB018091A3
S11328B0960190919701892B09F04FC0509397018D
S11328C04093960189E28093E00180910C01882372
S11328D0C9F0762F6627822F9927682B792B1092BF
S11328E00C012CE186E00E949F099927282F882358
S11328F049F081E080930C011092970110929601A7
S1132900222359F581E080931A0180911B01909153
S11329101D01992351F08F5F80931B01843111F4C1
S113292010921B01915090931D019091900194314C
S1132930A0F480917C01282F290F312D311DF9013C
S11329402431310508F07497EE0FFF1FE255FE4F56
S1132950118300839F5F9093900190E080911D010B
S1132960882309F491E09923B9F50E94660634C0DE
S1132970110F90912505812F8923C9F0E42FFF279A
S1132980EE0FFF1FEA56FE4F208131811182108223
S1132990812F8095982390932505442341F4205E4C
S11329A03140B9F410921A010E94660612C04F5FBA
S11329B04830F0F211C080910C01E82FFF27EE0F90
S11329C0FF1FEA56FE4F6081718141E00E94090AAF
S11329D003C0110F41E0CDCFC05ADF4F0FB6F894BA
S11329E0DEBF0FBECDBFDF91CF911F910F91FF903E
S11329F0EF90DF90CF90BF90AF9008958091210524
S1132A008F3FB1F0282F3327F901E95AFE4F808117
S1132A10809321058F3F11F480932F058FEF8083DE
S1132A202F3F31F0822F0E94000F81E090E0089543
S1132A3080E090E008951F93CF93DF93CDB7DEB786
S1132A40E0970FB6F894DEBF0FBECDBF1FB7F89462
S1132A5040E150E06FEF70E087E591E00E94851956
S1132A608FEF8093210580932F0581E08EBD88E050
S1132A7080BF83E083BF8CB59DB54AE72CB53DB5D7
S1132A802817390708F44150442311F0C901F6CF3F
S1132A9092B782B78917E9F32CB53DB592B782B7DF
S1132AA08917E9F38CB59DB5821B930B409675E0AD
S1132AB0969587957A95E1F790932305809322055F
S1132AC013BE83B78EBD8EB580BF12BE1DBC1CBCA9
S1132AD08FEF86BF86B780937C0080B79927877075
S1132AE09070892BD1F7D29AD19AD09ADA9AD99A3E
S1132AF0D89A15BA8FEF84BBD498DC981DBC1CBC43
S1132B0087B7846087BF8EB5887F84608EBD0E943E
S1132B10FE148823E1F7EEEAF1E08EE192E081937E
S1132B209193809621E0E63DF207C9F784E1809312
S1132B30900110927C018FEF80936F01E7E2F1E046
S1132B408FEF9FEF918380831282339621E0E333EA
S1132B50F207C1F70E94BE0060939F0480910001B8
S1132B60909101010196AA27BB2780937701909346
S1132B707801A0937901B0937A0180B7886080BF0F
S1132B808BE083BF86EE81BF87B7826087BF0E94D8
S1132B9024038CEE94E090931F0180931E018E9881
S1132BA0B89A8C988FEF809381011092DB01109278
S1132BB0DC011092DD011092DE01B89AD69AD59A02
S1132BC08FB7F894992720910601309107018FBFA0
S1132BD030938701209386010E94C70429A73AA74E
S1132BE04BA75CA76DA77EA78FA798ABDE01919634
S1132BF0FE01B99688E001900D928150E1F7DE0163
S1132C005196FE01B19688E001900D928150E1F752
S1132C10DE015996FE01719688E001900D92815073
S1132C20E1F7A5E1B2E0FE01799688E001900D920A
S1132C308150E1F780910801992790937301809363
S1132C4072018FE18093D6018AE180931D020E9474
S1132C50C70429A73AA74BA75CA76DA77EA78FA790
S1132C6098ABDE019196FE01B99688E001900D9231
S1132C708150E1F7DE011196FE01B19688E00190E2
S1132C800D928150E1F7DE011996FE01319688E03C
S1132C9001900D928150E1F7A5E1B2E0FE01399671
S1132CA088E001900D928150E1F7A5E1B2E0FD01C9
S1132CB037969C9180818D939083319782E0E8319F
S1132CC0F807B9F781E080936C011092290580938D
S1132CD07401109214020E94FE148823E1F7812FDC
S1132CE099278FBF78940E942E068FB7F894482FA7
S1132CF055274BC087B7992783709070892B19F497
S1132D00E5E0F0E013C080B7992787709070892BB5
S1132D10D1F781B792B7891B8C3030F082B7853FE9
S1132D2018F4E3E0F0E002C0E2E0F0E087B7887B6B
S1132D30C1F480917D008B7FA1F46E9912C08AB199
S1132D4090919A00892B887161F48091740082FDBE
S1132D5008C0379B03C081E090E005C085E090E0A7
S1132D6002C080E090E025B78E1708F4E82FFF2713
S1132D70E457FF4FE491237E2062E22BE5BF789471
S1132D808895F89485B78F7D85BF809121058F3F05
S1132D9009F4B0CF282F3327F901E95AFE4F808177
S1132DA0809321058F3F11F480932F058FEF80834B
S1132DB02F3F09F49FCF4FBF822F0E94000F95CF62
S1132DC078941F920F920FB60F9211241F932F9392
S1132DD03F934F935F936F937F938F939F93AF939F
S1132DE0BF93EF93FF9387B78F7E87BF78941FB706
S1132DF0F89480917D0190917E01A0917F01B09122
S1132E0080010097A105B10509F051C0809114011A
S1132E10909115018530910561F18630910530F46A
S1132E208330910549F0049781F51AC087309105E4
S1132E30F1F0089751F514C0869B0FC084E090E030
S1132E4090931501809314010E94DC0327E030E085
S1132E5040E050E00E94990418C00E94D10A15C0B5
S1132E600E941F06882389F40E94FB0A0EC080E09A
S1132E700AC089E00E949A0681E00E94B40483E0BB
S1132E800E94C10787E00E94AA0780910F019091D8
S1132E901001019771F482E090E090931001809307
S1132EA00F01DE98DE9A80E00E94C70502C00E94EE
S1132EB0F903812F99278FBFFF91EF91BF91AF91B4
S1132EC09F918F917F916F915F914F913F912F913E
S1132ED01F910F900FBE0F901F901895ACE2B0E0B9
S1132EE0E4E7F7E10C944119222E332E442E552E9B
S1132EF0662E772E882E992EFE013196A8E0119227
S1132F00AA95E9F729823A824B825C826D827E829D
S1132F108F829886FE013996B8E01192BA95E9F746
S1132F20A986BA86CB86DC86ED86FE860F87188B4B
S1132F3089819A81AB81BC8189A79AA7ABA7BCA7D9
S1132F407C018D018FEF9FEFA0E0B0E0E822F92231
S1132F500A231B2389A59AA5ABA5BCA51D0144245E
S1132F60552489859A85AB85BC858DA39EA3AFA383
S1132F70B8A75C016D018FEF9FEFA0E0B0E0A8223D
S1132F80B922CA22DB228DA19EA1AFA1B8A53D0121
S1132F9088249924C801B701A60195010E94221929
S1132FA069A37AA38BA39CA3C801B701A4019301CD
S1132FB00E9422197B018C01C201B101A601950175
S1132FC00E9422195B016C01C201B101A4019301A9
S1132FD00E9422193B014C01EA0CFB1C0C1D1D1D17
S1132FE089A19AA1ABA1BCA19D01442755272E0D0F
S1132FF03F1D401F511F2A153B054C055D0540F43C
S113300080E090E0A1E0B0E0680E791E8A1E9B1E6D
S1133010CA01AA27BB27860D971DA81DB91D8D8F30
S11330209E8FAF8FB8A3A9013327222789A19AA124
S1133030ABA1BCA1A070B070280F391F4A1F5B1F41
S1133040298F3A8F4B8F5C8FA98CBA8CCB8CDC8CFC
S1133050ED8CFE8C0F8D18A1FE01719698E01192F3
S11330609A95E9F7ED8AFE8A0F8B188F2D813E81A0
S11330704F8158856DA17EA18FA198A50E94221928
S11330803B014C012D853E854F85588969A57AA55C
S11330908BA59CA50E9422192D893E894F89588DA4
S11330A0260F371F481F591F260D371D481D591D50
S11330B02D8B3E8B4F8B588F6D887E888F88988C94
S11330C02A2D3B2D4C2D5D2D662D772D882D992D88
S11330D0E2E1AC960C945D19A0E1B0E0E2E7F8E11E
S11330E00C944119222E332E442E552E662E772E03
S11330F0882E992E002309F466C088E0FE013196DB
S113310011928A95E9F729833A834B835C836D8313
S11331107E838F829887E0E2E01B1E16CCF52D811A
S11331203E814F815885602F772767FD7095DA01BE
S1133130C901062E04C0B695A795979587950A945C
S1133140D2F78D879E87AF87B88B04C0220F331FB9
S1133150441F551FEA95D2F789819A81AB81BC81BE
S113316004C0B695A795979587956A95D2F7282BAD
S1133170392B4A2B5B2B29873A874B875C87298419
S11331803A844B845C846D847E848F8498881BC0CD
S11331901D861E861F86188A2E2F332727FD3095FD
S11331A0309521953F4F8D819E81AF81B88504C0B4
S11331B0B695A795979587952A95D2F789879A8783
S11331C0AB87BC87DCCF222D332D442D552D662DA6
S11331D0772D882D992DE2E160960C945D19991B49
S11331E079E004C0991F961708F0961B881F7A95FA
S11331F0C9F780950895AA1BBB1B51E107C0AA1FFC
S1133200BB1FA617B70710F0A61BB70B881F991F83
S11332105A95A9F780959095BC01CD01089597FB27
S1133220092E07260AD077FD04D0E5DF06D000205A
S11332301AF4709561957F4F0895F6F790958195EE
S11332409F4F0895629FD001739FF001829FE00D0C
S1133250F11D649FE00DF11D929FF00D839FF00D11
S1133260749FF00D659FF00D9927729FB00DE11DBD
S1133270F91F639FB00DE11DF91FBD01CF0111249A
S113328008952F923F924F925F926F927F928F9206
S11332909F92AF92BF92CF92DF92EF92FF920F93E1
S11332A01F93CF93DF93CDB7DEB7CA1BDB0B0FB6EB
S11332B0F894DEBF0FBECDBF09942A8839884888A8
S11332C05F846E847D848C849B84AA84B984C8843E
S11332D0DF80EE80FD800C811B81AA81B981CE0F35
S11332E0D11D0FB6F894DEBF0FBECDBFED0108951A
S11332F0FB01DC0104C08D910190801921F441503F
S11333005040C8F7881B990B0895DC0101C06D93E8
S10D331041505040E0F70895FFCF4C
S111331A0100FFFFFFFF010022FFFFFF010083
S9030000FC
